{
  "transactions": [
    {
      "hash": "0xddeb8c7ca1ed835bcf3417fc67ff1827bd3df195c479ecff42894f27da3da9a2",
      "transactionType": "CREATE",
      "contractName": "ArcanaAMM",
      "contractAddress": "0x0355b7b8cb128fa5692729ab3aaa199c1753f726",
      "function": null,
      "arguments": [
        "0xe7f1725E7734CE288F8367e1Bb143E90bb3F0512",
        "0xe7f1725E7734CE288F8367e1Bb143E90bb3F0512",
        "0x5FbDB2315678afecb367f032d93F642f64180aa3"
      ],
      "transaction": {
        "from": "0xf39fd6e51aad88f6f4ce6ab8827279cfffb92266",
        "gas": "0xcde26",
        "value": "0x0",
        "input": "0x6080346100dc57601f610a4638819003918201601f19168301916001600160401b038311848410176100e0578084926060946040528339810103126100dc57610047816100f4565b906100606040610059602084016100f4565b92016100f4565b9160017f9b779b17422d0df92223018b32b4d1fa46e071723d6817e2486d003becc55f005561008e33610108565b50600180546001600160a01b03199081166001600160a01b03938416179091556002805482169383169390931790925560038054909216921691909117905560405161089490816101928239f35b5f80fd5b634e487b7160e01b5f52604160045260245ffd5b51906001600160a01b03821682036100dc57565b6001600160a01b0381165f9081525f516020610a265f395f51905f52602052604090205460ff1661018c576001600160a01b03165f8181525f516020610a265f395f51905f5260205260408120805460ff191660011790553391907f2f8788117e7eff1d82e926ec794901d17c78024a50270940304540a733656f0d8180a4600190565b505f9056fe6080806040526004361015610012575f80fd5b5f3560e01c90816301ffc9a7146105f657508063248a9ca3146105d05780632b2b92fa146105b35780632cb5cab61461058b5780632f2ff15d146105685780633122d5341461054057806336568abe1461050a57806391d14854146104cf57806394b918de146102e75780639cd441da14610188578063a217fddf1461016e578063a282674114610146578063ccc574901461010c578063d547741f146100e25763edb3520f146100c1575f80fd5b346100de575f3660031901126100de576020600554604051908152f35b5f80fd5b346100de5761010a6100f336610649565b906101056101008261066f565b6106fe565b6107be565b005b346100de575f3660031901126100de5760206040517f7935bd0ae54bc31f548c14dba4d37c5c64b3f8ca900cb468fb8abd54d5894f558152f35b346100de575f3660031901126100de576002546040516001600160a01b039091168152602090f35b346100de575f3660031901126100de5760206040515f8152f35b346100de5760403660031901126100de57335f9081527fad3228b676f7d3cd4284a5443f17f1962b36e491b30a40b2405849e597ba5fb56020526040902054600435906024359060ff16156102d0576001546040516323b872dd60e01b81529060209082906001600160a01b0316815f81610208893033600485016106dc565b03925af180156102a8576102b3575b506002546040516323b872dd60e01b8152929060209084906001600160a01b0316815f8161024a883033600485016106dc565b03925af19081156102a8576102769361026b9261027b575b50600454610680565b600455600554610680565b600555005b61029c9060203d6020116102a1575b610294818361068d565b8101906106c4565b610262565b503d61028a565b6040513d5f823e3d90fd5b6102cb9060203d6020116102a157610294818361068d565b610217565b63e2517d3f60e01b5f52336004525f60245260445ffd5b346100de5760203660031901126100de5760043560025f51602061083f5f395f51905f5254146104c05760025f51602061083f5f395f51905f5255600554801515806104b5575b1561048157600454908282029180830484149015171561041f578261035291610680565b90811561046d576002546040516323b872dd60e01b815292909104929060209083906001600160a01b0316815f8161038f873033600485016106dc565b03925af19182156102a8575f92610450575b5060015460405163a9059cbb60e01b8152336004820152602481018590529260209184916044918391906001600160a01b03165af19182156102a8576103ef92610433575b50600554610680565b6005556004549080820391821161041f5760209160045560015f51602061083f5f395f51905f5255604051908152f35b634e487b7160e01b5f52601160045260245ffd5b61044b9060203d6020116102a157610294818361068d565b6103e6565b6104689060203d6020116102a157610294818361068d565b6103a1565b634e487b7160e01b5f52601260045260245ffd5b60405162461bcd60e51b815260206004820152600c60248201526b4e6f204c697175696469747960a01b6044820152606490fd5b50600454151561032e565b633ee5aeb560e01b5f5260045ffd5b346100de576104dd36610649565b905f525f60205260405f209060018060a01b03165f52602052602060ff60405f2054166040519015158152f35b346100de5761051836610649565b336001600160a01b038216036105315761010a916107be565b63334bd91960e11b5f5260045ffd5b346100de575f3660031901126100de576001546040516001600160a01b039091168152602090f35b346100de5761010a61057936610649565b906105866101008261066f565b610736565b346100de575f3660031901126100de576003546040516001600160a01b039091168152602090f35b346100de575f3660031901126100de576020600454604051908152f35b346100de5760203660031901126100de5760206105ee60043561066f565b604051908152f35b346100de5760203660031901126100de576004359063ffffffff60e01b82168092036100de57602091637965db0b60e01b8114908115610638575b5015158152f35b6301ffc9a760e01b14905083610631565b60409060031901126100de57600435906024356001600160a01b03811681036100de5790565b5f525f602052600160405f20015490565b9190820180921161041f57565b601f909101601f19168101906001600160401b038211908210176106b057604052565b634e487b7160e01b5f52604160045260245ffd5b908160209103126100de575180151581036100de5790565b6001600160a01b03918216815291166020820152604081019190915260600190565b5f8181526020818152604080832033845290915290205460ff16156107205750565b63e2517d3f60e01b5f523360045260245260445ffd5b5f818152602081815260408083206001600160a01b038616845290915290205460ff166107b8575f818152602081815260408083206001600160a01b0395909516808452949091528120805460ff19166001179055339291907f2f8788117e7eff1d82e926ec794901d17c78024a50270940304540a733656f0d9080a4600190565b50505f90565b5f818152602081815260408083206001600160a01b038616845290915290205460ff16156107b8575f818152602081815260408083206001600160a01b0395909516808452949091528120805460ff19169055339291907ff6391f5c32d9c69d2a47ea670b442974b53935d1edc7fd64eb21e047a839171b9080a460019056fe9b779b17422d0df92223018b32b4d1fa46e071723d6817e2486d003becc55f00a26469706673582212202e9c28eb0c9d544816d3a8982455de8da5b3d8df4fb40052986adf728cd8bb9364736f6c634300081c0033ad3228b676f7d3cd4284a5443f17f1962b36e491b30a40b2405849e597ba5fb5000000000000000000000000e7f1725e7734ce288f8367e1bb143e90bb3f0512000000000000000000000000e7f1725e7734ce288f8367e1bb143e90bb3f05120000000000000000000000005fbdb2315678afecb367f032d93f642f64180aa3",
        "nonce": "0x4d",
        "chainId": "0x7a69"
      },
      "additionalContracts": [],
      "isFixedGasLimit": false
    },
    {
      "hash": "0x303026a0de2506cb233d2e0b9f271db4a3ae40ba4a969e09e7b41757bce6b2f2",
      "transactionType": "CALL",
      "contractName": null,
      "contractAddress": "0xe7f1725e7734ce288f8367e1bb143e90bb3f0512",
      "function": "approve(address,uint256)",
      "arguments": [
        "0x0355B7B8cb128fA5692729Ab3AAa199C1753f726",
        "80000000000000000000000000000"
      ],
      "transaction": {
        "from": "0xf39fd6e51aad88f6f4ce6ab8827279cfffb92266",
        "to": "0xe7f1725e7734ce288f8367e1bb143e90bb3f0512",
        "gas": "0x106b4",
        "value": "0x0",
        "input": "0x095ea7b30000000000000000000000000355b7b8cb128fa5692729ab3aaa199c1753f7260000000000000000000000000000000000000001027e72f1f128130880000000",
        "nonce": "0x4e",
        "chainId": "0x7a69"
      },
      "additionalContracts": [],
      "isFixedGasLimit": false
    },
    {
      "hash": "0x2a0a0683180d1718d189dd5f99552f81e3ca2497dbbcb82e92545e88d14cfdbe",
      "transactionType": "CALL",
      "contractName": "ArcanaAMM",
      "contractAddress": "0x0355b7b8cb128fa5692729ab3aaa199c1753f726",
      "function": "addLiquidity(uint256,uint256)",
      "arguments": [
        "40000000000000000000000000000",
        "40000000000000000000000000000"
      ],
      "transaction": {
        "from": "0xf39fd6e51aad88f6f4ce6ab8827279cfffb92266",
        "to": "0x0355b7b8cb128fa5692729ab3aaa199c1753f726",
        "gas": "0x25437",
        "value": "0x0",
        "input": "0x9cd441da0000000000000000000000000000000000000000813f3978f8940984400000000000000000000000000000000000000000000000813f3978f894098440000000",
        "nonce": "0x4f",
        "chainId": "0x7a69"
      },
      "additionalContracts": [],
      "isFixedGasLimit": false
    }
  ],
  "receipts": [
    {
      "status": "0x1",
      "cumulativeGasUsed": "0x9e5f6",
      "logs": [
        {
          "address": "0x0355b7b8cb128fa5692729ab3aaa199c1753f726",
          "topics": [
            "0x2f8788117e7eff1d82e926ec794901d17c78024a50270940304540a733656f0d",
            "0x0000000000000000000000000000000000000000000000000000000000000000",
            "0x000000000000000000000000f39fd6e51aad88f6f4ce6ab8827279cfffb92266",
            "0x000000000000000000000000f39fd6e51aad88f6f4ce6ab8827279cfffb92266"
          ],
          "data": "0x",
          "blockHash": "0x3cca6d0878d068e7c53475d12522643b7e6f13c2269543c0cdbd8abd84fa39f7",
          "blockNumber": "0x4e",
          "blockTimestamp": "0x69a89c20",
          "transactionHash": "0xddeb8c7ca1ed835bcf3417fc67ff1827bd3df195c479ecff42894f27da3da9a2",
          "transactionIndex": "0x0",
          "logIndex": "0x0",
          "removed": false
        }
      ],
      "logsBloom": "0x00000004000000000000000000000000000000000000000000000000000000000000000000000000000000000000000000000000000000000000004000000000000000000000000000000000000000000000000000000000000000000000000000000000020000000000000100000800000000000000000000000000000000000000002000000000000000000000000000000000000000000000000000000000000004000000000000000000000000000000000000000000001000000000000000000000000000200000000000000000000000002000000100000000000020000000000000000000000000000000000000000000000000000000000000000000",
      "type": "0x2",
      "transactionHash": "0xddeb8c7ca1ed835bcf3417fc67ff1827bd3df195c479ecff42894f27da3da9a2",
      "transactionIndex": "0x0",
      "blockHash": "0x3cca6d0878d068e7c53475d12522643b7e6f13c2269543c0cdbd8abd84fa39f7",
      "blockNumber": "0x4e",
      "gasUsed": "0x9e5f6",
      "effectiveGasPrice": "0x913f",
      "blobGasPrice": "0x1",
      "from": "0xf39fd6e51aad88f6f4ce6ab8827279cfffb92266",
      "to": null,
      "contractAddress": "0x0355b7b8cb128fa5692729ab3aaa199c1753f726"
    },
    {
      "status": "0x1",
      "cumulativeGasUsed": "0xb3a1",
      "logs": [
        {
          "address": "0xe7f1725e7734ce288f8367e1bb143e90bb3f0512",
          "topics": [
            "0x8c5be1e5ebec7d5bd14f71427d1e84f3dd0314c0f7b2291e5b200ac8c7c3b925",
            "0x000000000000000000000000f39fd6e51aad88f6f4ce6ab8827279cfffb92266",
            "0x0000000000000000000000000355b7b8cb128fa5692729ab3aaa199c1753f726"
          ],
          "data": "0x0000000000000000000000000000000000000001027e72f1f128130880000000",
          "blockHash": "0xf6b6e80f706f0779e7be8710b765ac8b862bb363d388fd52ba5a5c15080b1f25",
          "blockNumber": "0x4f",
          "blockTimestamp": "0x69a89c20",
          "transactionHash": "0x303026a0de2506cb233d2e0b9f271db4a3ae40ba4a969e09e7b41757bce6b2f2",
          "transactionIndex": "0x0",
          "logIndex": "0x0",
          "removed": false
        }
      ],
      "logsBloom": "0x00000000000000000000000000000000000000000000000000000000000000000000000000000000000000000000000010000000000000000000000000200000000000000000000000000000000000000000000000000000000000000000000000000000000000000000000100000000000000000000000000080040000000000000000000000000000000000000000000000000000000000000000000000000020000000000000000000000000000000000000000000000000000000000000000000000000000200000000000001000000000002000000000000010000000000010000000000000000000000000000000000000000000800000000000000000",
      "type": "0x2",
      "transactionHash": "0x303026a0de2506cb233d2e0b9f271db4a3ae40ba4a969e09e7b41757bce6b2f2",
      "transactionIndex": "0x0",
      "blockHash": "0xf6b6e80f706f0779e7be8710b765ac8b862bb363d388fd52ba5a5c15080b1f25",
      "blockNumber": "0x4f",
      "gasUsed": "0xb3a1",
      "effectiveGasPrice": "0x7fe1",
      "blobGasPrice": "0x1",
      "from": "0xf39fd6e51aad88f6f4ce6ab8827279cfffb92266",
      "to": "0xe7f1725e7734ce288f8367e1bb143e90bb3f0512",
      "contractAddress": null
    },
    {
      "status": "0x1",
      "cumulativeGasUsed": "0x1afa7",
      "logs": [
        {
          "address": "0xe7f1725e7734ce288f8367e1bb143e90bb3f0512",
          "topics": [
            "0xddf252ad1be2c89b69c2b068fc378daa952ba7f163c4a11628f55a4df523b3ef",
            "0x000000000000000000000000f39fd6e51aad88f6f4ce6ab8827279cfffb92266",
            "0x0000000000000000000000000355b7b8cb128fa5692729ab3aaa199c1753f726"
          ],
          "data": "0x0000000000000000000000000000000000000000813f3978f894098440000000",
          "blockHash": "0x31b14cb78470303dcbeae50cc93e817a3fb4e233fac97cb26fff8728dd47d431",
          "blockNumber": "0x50",
          "blockTimestamp": "0x69a89c20",
          "transactionHash": "0x2a0a0683180d1718d189dd5f99552f81e3ca2497dbbcb82e92545e88d14cfdbe",
          "transactionIndex": "0x0",
          "logIndex": "0x0",
          "removed": false
        },
        {
          "address": "0xe7f1725e7734ce288f8367e1bb143e90bb3f0512",
          "topics": [
            "0xddf252ad1be2c89b69c2b068fc378daa952ba7f163c4a11628f55a4df523b3ef",
            "0x000000000000000000000000f39fd6e51aad88f6f4ce6ab8827279cfffb92266",
            "0x0000000000000000000000000355b7b8cb128fa5692729ab3aaa199c1753f726"
          ],
          "data": "0x0000000000000000000000000000000000000000813f3978f894098440000000",
          "blockHash": "0x31b14cb78470303dcbeae50cc93e817a3fb4e233fac97cb26fff8728dd47d431",
          "blockNumber": "0x50",
          "blockTimestamp": "0x69a89c20",
          "transactionHash": "0x2a0a0683180d1718d189dd5f99552f81e3ca2497dbbcb82e92545e88d14cfdbe",
          "transactionIndex": "0x0",
          "logIndex": "0x1",
          "removed": false
        }
      ],
      "logsBloom": "0x00000000000000000000000000000000000000000000000000000000000000000000000000000000000000000000000010000000000000000000000000000000000000000000000000000008000000000000000000000000000000000000000000000000000000000000000100000000000000000000000000080050000000000000000000000000000000000000000000000000000000000000000000000000000000000000000000000000000000000000000000000000000000000000000000000002000000200000000000001000000000002000000000000010000000000000000000000000000000000000000000000000000000800000000000000000",
      "type": "0x2",
      "transactionHash": "0x2a0a0683180d1718d189dd5f99552f81e3ca2497dbbcb82e92545e88d14cfdbe",
      "transactionIndex": "0x0",
      "blockHash": "0x31b14cb78470303dcbeae50cc93e817a3fb4e233fac97cb26fff8728dd47d431",
      "blockNumber": "0x50",
      "gasUsed": "0x1afa7",
      "effectiveGasPrice": "0x6ff2",
      "blobGasPrice": "0x1",
      "from": "0xf39fd6e51aad88f6f4ce6ab8827279cfffb92266",
      "to": "0x0355b7b8cb128fa5692729ab3aaa199c1753f726",
      "contractAddress": null
    }
  ],
  "libraries": [],
  "pending": [],
  "returns": {},
  "timestamp": 1772657697345,
  "chain": 31337,
  "commit": "2c9ca7cd0"
}